:020000040800F2
:10000000E80500202917000805020008070200087B
:100010000B0200080F020008130200080000000095
:1000200000000000000000000000000017020008AF
:1000300019020008000000001B0200081D02000851
:100040004317000843170008431700084317000828
:100050004317000843170008431700084317000818
:100060004317000843170008431700084317000808
:1000700043170008431700084317000843170008F8
:1000800043170008431700084317000843170008E8
:1000900043170008431700084317000843170008D8
:1000A00043170008431700084317000843170008C8
:1000B00043170008431700085B05000843170008B2
:1000C00043170008431700084317000843170008A8
:1000D000431700086B140008431700081D1600089A
:1000E0004317000843170008431700084317000888
:1000F0004317000843170008431700084317000878
:100100004317000843170008431700084317000867
:100110004317000843170008431700084317000857
:100120004317000843170008431700084317000847
:10013000DFF80CD003F034FC00480047450100080C
:10014000E805002000F068FF4FF4A06001F0FEFA1F
:100150004FF4E13001F03DF94FF4165001F072FA1E
:10016000472141F63F7000F074F9472142F20F70C9
:1001700000F046F94FF4FA7000F08BFF4FF4E161A4
:100180001A4802F09BFD4FF4FA7000F082FF4FF422
:10019000E161164802F094FD4FF4E161134802F06A
:1001A00091FD21E01248008800F40040E0B11048C1
:1001B0000088C0F30D0500240DE00E48015D0E48D7
:1001C00002F0FCFE00BF40210B4802F065FF012851
:1001D000F9D1601C84B2AC42EFDB00BF07A003F092
:1001E000FFFB002002490880DCE70000000400401B
:1001F000D400002020010020003801400D0A0D0A23
:1002000000000000704700BFFEE700BFFEE700BF30
:10021000FEE700BFFEE77047704770477047000079
:100220000CB50020019000906C48006840F48030CC
:100230006A49086000BF6948006800F40030009017
:100240000198401C0190009818B90198B0F5A06F72
:10025000F1D16248006800F4003010B10120009034
:1002600001E0002000900098012843D15C4800681C
:1002700040F010005A4908600846006820F003006A
:1002800008600846006840F0020008605348406873
:10029000524948600846406848600846406840F453
:1002A000806048600846406820F47C10486008463A
:1002B000406840F4E81048600846006840F08070EC
:1002C000086000BF4548006800F000700028F9D0C1
:1002D0004248406820F003004049486008464068B2
:1002E00040F00200486000BF3C48406800F00C004D
:1002F0000828F9D10CBD10B5FFF792FF10BD10B55D
:100300003648006840F001003449086008464068FB
:10031000344908403149486008460068324908407D
:100320002E4908600846006820F4802008600846CE
:10033000406820F4FE0048604FF41F008860FFF71B
:10034000DAFF4FF000602949086010BD10B50021A8
:1003500000200022214B5B6803F00C0121B104292D
:1003600006D0082928D107E0214B224C236027E042
:100370001F4B204C236023E0184B5B6803F4701084
:10038000164B5B6803F48032022303EB904022B9E2
:10039000194B4343174C23600DE0104B5B6803F48B
:1003A000003323B1144B4343124C236003E0104B42
:1003B0004343104C236003E00D4B0E4C236000BF01
:1003C00000BF064B5B68C3F303130C4CE15C094BA5
:1003D0001B68CB40074C236010BD0000001002409A
:1003E000002002400000FFF8FFFFF6FE08ED00E0ED
:1003F00000127A000000002000093D0004000020E7
:1004000070B505460C466748C06940F00400654970
:10041000C86165480580001F048063482038008853
:1004200040F001006049203908805F482C3800887E
:1004300040F080005C492C3908800846008840F074
:100440000100088002231E220321012000F066FE25
:1004500070BD30B589B005460C460121022001F07F
:100460000CFD0121092001F0FBFC01214F4801F0A6
:100470000CFB01214E4801F008FB1020ADF82000D4
:1004800018208DF8230003208DF8220008A9494880
:1004900001F02AFA2020ADF8200018208DF8230062
:1004A00003208DF8220008A9424801F01DFA01201E
:1004B000ADF8200018208DF8230003208DF82200CD
:1004C00008A93C4801F010FA0220ADF820001820DD
:1004D0008DF8230003208DF8220008A9354801F08B
:1004E00003FAADF81850ADF814400020ADF81A002A
:1004F000ADF8160005A9304801F0EAFD6020ADF81E
:1005000004000120ADF806000020ADF80C0001A9A0
:10051000294801F01AFE01A9274801F058FE01A957
:10052000254801F0A1FE01A9234801F0E8FE0821B9
:10053000214802F059FA08211F4802F05EFA08210A
:100540001D4802F067FA08211B4802F06CFA0121ED
:10055000194802F019F909B030BD10B5012112484F
:100560002C3802F0DAFBE0B101210F482C3802F000
:10057000E5FB12480078401CC0B210490870012801
:1005800001DD002008700D480078012809D100F035
:1005900077FC044600F05EF900F0C2FC044600F06F
:1005A0005AF810BD001002402C08004000081A0044
:1005B00000013000000C0140000400401800002041
:1005C0002DE9FC4781468A46B9F1010F06D0B9F101
:1005D000020F16D0B9F1030F39D125E0504603F0D0
:1005E00057F80746FD4AFE4B02F01FFF0546002262
:1005F000FC4B02F073FECDE9000103F02AF804463B
:1006000025E0504603F044F80746F44AF44B02F064
:100610000CFF05460022F34B02F004FFCDE9000178
:1006200003F017F8044612E0504603F031F805468F
:10063000EA4AEB4B02F0F9FE07460022E94B02F0D2
:10064000F1FECDE9000103F004F8044600BF00BF4D
:100650002046BDE8FC872DE9F14F9AB00020E24921
:1006600008601A9803F014F8CDE9040104F004F8C6
:10067000CDE90801DD48006880F0004B584603F0E2
:1006800007F8CDE90601DDE9082302F0CEFECDE949
:100690000A0103F010F8D64908601A9802F0F8FF32
:1006A000CDE9000104F036F8CDE90401CF48006837
:1006B00002F0EEFFCDE90201DDE9042302F0B5FE10
:1006C000CDE90801CB48006802F0E2FFCDE9060160
:1006D000DDE9082302F002FECDE90A0102F0EBFF9A
:1006E000C5490860C5480168C148006802F080FD3E
:1006F000834602F0CDFF80468946C1480168BE4866
:10070000006802F075FD0B90BD480168BA480068AA
:1007100002F06EFD0A900B9902F070FD834602F024
:10072000B7FFCDE90C01B4480168B64802F066FD98
:10073000834602F0ADFF04460D4642464B4600207C
:10074000B14902F072FE06460F4642464B4640460D
:10075000494602F06AFECDE90601DDE90C2302F00C
:10076000BDFD0022A94BCDE9080102F0B7FD002232
:10077000A74BCDE90A0102F052FECDE9180122464D
:100780002B462046294602F050FECDE9160132469E
:100790003B463046394602F048FECDE91401DDE91A
:1007A0001423DDE9160102F099FDCDE9080104F0FA
:1007B00001F802460B46CDE90A01DDE9180102F015
:1007C000A6FECDE9100122462B463046394602F0FE
:1007D0009EFECDE90E01DDE90E0103F03DFECDE9FF
:1007E0000A01DDE9100103F0FFFCCDE90801DDE9B4
:1007F0000A2302F014FECDE91201864A864BDDE998
:10080000120102F00CFECDE91201DDE9120102F045
:1008100052FF834659460120FFF7D2FE82465146D9
:100820007EA003F0DDF881480068824503DD7F4843
:10083000D0F800A006E07E480068824502DA7C48D5
:10084000D0F800A01FFA8AF17A4802F037FA1BB0FC
:10085000BDE8F08F2DE9F14FA2B0229802F018FF09
:10086000CDE9040103F008FFCDE9080172480068F2
:1008700002F0C5FECDE90601DDE9082302F0D5FD51
:1008800000224FF08043CDE90A0102F040FECDE99D
:100890000C0102F010FF6949086069486949086065
:1008A000229802F0F5FECDE9000103F033FFCDE917
:1008B00004016148006802F0A2FECDE90201DDE911
:1008C000042302F0B2FD00224FF08043CDE906017F
:1008D00002F01DFECDE90A014648006802F0D8FE8C
:1008E000CDE90801DDE90A2302F0F8FCCDE90C01AD
:1008F00002F0E1FE54490860544801684F4800681E
:1009000002F076FC0D9002F0C3FECDE918015048CC
:1009100001684C48006802F06BFC0D9002F0B8FED4
:10092000CDE916014B4801684748006802F060FCB9
:100930000D9002F0ADFECDE91401DDE9182310465B
:10094000194602F072FDCDE91201DDE916231046C9
:10095000194602F06AFDCDE91001DDE914231046C5
:10096000194602F062FDCDE90E01374801682548BD
:1009700002F044FC0D9002F08BFE06460F4600206C
:100980003549DDE9162302F050FDCDE90C0133486D
:100990003349DDE9182302F048FDCDE90A01DDE91C
:1009A0000C2302F09BFC80468946DDE91023DDE93B
:1009B000120102F093FCCDE90801DDE90E2302F0FB
:1009C0008DFC0022114BCDE90A0102F087FC0022C8
:1009D0000F4BCDE90C0102F022FD43E00AD7A370D2
:1009E0003DE0834000209C40780000203000002043
:1009F0007C000020380000208000002058000020EB
:100A00005C0000200000404200004840000082409E
:100A10000000B940E3361AC05B20E13F70776D31CA
:100A20003A20202564200D0A000000003C00002030
:100A30004800002000040040200000208400002026
:100A400000801542880000208C00002060000020FB
:100A5000640000206800002000003840621058390F
:100A6000B4C83440CDE9200142464B464046494691
:100A700002F0DBFC32463B46CDE908013046394600
:100A800002F0D3FCCDE90601DDE9082302F026FCE3
:100A9000CDE90A0103F08EFE02460B46CDE90C01BA
:100AA000DDE9200102F033FDCDE91C0132463B4671
:100AB0004046494602F02BFDCDE91A01DDE91A0155
:100AC00003F0CAFCCDE90A01DDE91C0103F08CFB4F
:100AD000CDE90801DDE90A2302F0A1FCCB4ACC4BA9
:100AE000CDE90C0102F09BFC04460D4685F0004068
:100AF000CDE91E402046294602F0DDFD01460D905D
:100B00000220FFF75DFD8246DDE91E0102F0D3FD04
:100B100001460D900320FFF753FD83465146BDA0CB
:100B200002F05EFF5946BFA002F05AFFC1480068BC
:100B3000824503DDBF48D0F800A006E0BE4800684B
:100B4000824502DABC48D0F800A0BC480068834562
:100B500003DDBA48D0F800B006E0B9480068834524
:100B600002DAB748D0F800B01FFA8AF1B54802F0AF
:100B7000A7F81FFA8BF1B34802F0A4F823B0BDE840
:100B8000F08F2DE9F14F94B0149802F081FDCDE97A
:100B9000040103F071FDCDE90801AB480068404253
:100BA00002F02DFDCDE90601DDE9082302F03DFC50
:100BB00000224FF08043CDE90A0102F0A8FC8046F4
:100BC00002F079FDA1490860A148A2490860149883
:100BD00002F05EFDCDE9000103F09CFDCDE90401CA
:100BE0009948006802F00BFDCDE90201DDE904231C
:100BF00002F01BFC00224FF08043CDE9060102F019
:100C000086FC804689469448006802F041FD4246D1
:100C10004B46CDE9080102F002FCCDE90A0102F0E1
:100C20004AFD8E4908608E490968480002F0DEFCE2
:100C300081468A480168484602F0E0FA804602F0A0
:100C400027FD04460D46874801688248006802F087
:100C5000CFFA4FF08041059002F002FB834602F08C
:100C600017FD80468946804801687848006802F090
:100C7000BFFA80F0004B584602F00AFD7B4A7C4BDD
:100C8000CDE9040102F0D1FB42464B46CDE9060115
:100C900002F024FBCDE90A0171490968480002F01D
:100CA000AEFCCDE90801DDE90A2302F0BEFB0646F1
:100CB0000F46704801686948006802F099FA099087
:100CC0006C4801686548006802F092FA089009993A
:100CD00002F094FA0B90634801685E48006802F0E5
:100CE00087FA07905F4801685A48006802F080FA66
:100CF0000690079902F082FA09905B480168534810
:100D0000006802F075FA0790574801684F4800687C
:100D100002F06EFA0690079902F070FA08900999AD
:100D200002F014FA0A900B9902F010FA8346524925
:100D300002F00CFA8146514902F05AFA804602F05C
:100D4000A7FCCDE9120132463B463046394602F057
:100D50006CFB8046894622462B462046294602F0F7
:100D600064FB42464B46CDE9060102F0B7FACDE9F5
:100D7000080103F01FFD02460B46CDE90A01DDE93B
:100D8000120102F0C4FBCDE90E0122462B4630468B
:100D9000394602F0BCFBCDE90C01DDE90C0103F0A2
:100DA0005BFBCDE90A01DDE90E0103F01DFACDE997
:100DB0000801DDE90A2302F032FB8046134A144B96
:100DC00002F02DFBCDE91001DDE9100102F073FC0A
:100DD000804641460320FFF7F3FB82461748006830
:100DE000824503DD1548D0F800A006E014480068ED
:100DF000824502DA1248D0F800A01FFA8AF11148A1
:100E000001F060FF15B0BDE8F08F0000E3361AC0B6
:100E10005B20E13F70776D323A20202564200D0A77
:100E20000000000070776D333A20202564200D0A01
:100E300000000000400000204C0000204400002082
:100E400050000020000400402000002090000020FE
:100E500000801542940000203800002098000020F7
:100E600024000020700000206C00002083C0CAA174
:100E700045B6EB3F74000020000010440000C84558
:100E80002DE9FF5F574801685748006802F0B0F944
:100E900005463946284602F0ABF9804653492846B4
:100EA00002F030FC01D2002412E05149284602F041
:100EB0001FFC01D201240BE029464C4802F098F9AE
:100EC0004C49009002F0CCF9019002F0A9FB0446D5
:100ED00029464948006802F091F94849019002F01A
:100EE000BFF982464FF0000B4946404602F080F9B8
:100EF000019043480168019802F080F90290594638
:100F0000504602F023F90190029902F01FF90646BB
:100F10002F46CDF80C90C146304604B0BDE8F09F96
:100F20002DE9F04F85B0374801683748006802F076
:100F30005FF905463946284602F05AF980462B49A2
:100F4000284602F0DFFB01D2002412E0284928469F
:100F500002F0CEFB01D201240BE02946234802F027
:100F600047F92449019002F07BF9029002F058FB06
:100F7000044629462548006802F040F91F490290BE
:100F800002F06EF98246204602F030FB00902048C5
:100F90000168009802F032F92946019002F02EF91A
:100FA0000290039902F0D2F803904946404602F0BD
:100FB0001FF9029017480168029802F01FF9834652
:100FC0005046039902F0C2F85946029002F0BEF86A
:100FD00006462F46CDF81090C146304605B0BDE814
:100FE000F08F0000C40000200001002000004842F3
:100FF0000000F0410000A0419C00002000002041C2
:10100000A4000020C800002004010020A800002047
:10101000AC000020B000002010B56FF0040000F01C
:10102000E4FB2E4800682E49B0FBF1F02D49087012
:101030000846007800EB4001C1EBC0104FF6FF718D
:1010400001EAC0002849088010BD0146254A1278EF
:101050004A434FF0E0235A6100229A611A4612690E
:1010600042F001021A6100BF4FF0E022106900F067
:1010700001021AB100F48032002AF5D04FF0E022CC
:10108000126922F001024FF0E0231A6100229A61F6
:1010900070470146144A12884A434FF0E0235A61D0
:1010A00000229A611A46126942F001021A6100BFD9
:1010B0004FF0E022106900F001021AB100F4803212
:1010C000002AF5D04FF0E022126922F001024FF021
:1010D000E0231A6100229A6170470000000000209E
:1010E00000127A00CC000020CE000020A64A0A4060
:1010F0000243A64B1A6070470146072323EA010208
:101100001202A24B1B1D18684FF6FF031840A04B9C
:10111000184310439D4B1B1D186070472DE9F0418B
:101120000746884614461D462846FFF7E5FFC5F1E9
:10113000040007FA00F60F20284100EA08000643E1
:1011400006F00F06E21704EBD2625211920002F190
:10115000E022D2F800212146E31704EBD3635B11B0
:10116000A4EB431C012303FA0CF31A432046E317B4
:1011700004EBD3635B119B0003F1E023C3F8002170
:101180008448005D40EA061082490855BDE8F081B8
:1011900070B504460B46CE1701EB9676C6F3870072
:1011A000CE1701EB9676B610A1EB8606B606350E85
:1011B000794B9B6943F00103774EB3614FEAB63335
:1011C00053F820300F26AE40B343744E46F820301B
:1011D000334653F8203004FA05F61E436F4B43F8AC
:1011E00020606F4B1B6801268E4033436C4E33608A
:1011F00002F0010343B16A4B0C331B6801268E4099
:101200003343674E0C36336002F0020343B1644B44
:1012100008331E6801238B401E43614B08331E6058
:1012200070BD00B500205C490861C86014204861A9
:1012300000208861C8610846006840F0010008602D
:1012400008464068574908405349486008460068C6
:1012500055490840504908600846006820F480203D
:1012600008600846406820F4FE004860002088605E
:1012700000214FF00060FFF739FF00BD30BF70471D
:1012800072B6704762B6704700B5404808300068D3
:1012900040F004003D49083108603F48C06940F013
:1012A00080503D49C8614148406840F480703F49E2
:1012B00048600846006840F004000860084600687E
:1012C00040F002000860FFF7D9FF00BD3048001D64
:1012D0002E49091D08607047014649062E4A926949
:1012E00042F001022C4B9A612C4A083A526822F0D3
:1012F000E0622A4B083B5A601A4652680A435A6019
:10130000704730B504460025FFF78BFF2248006880
:1013100040F480302049086000BF1F480068400C3E
:101320000028FAD04FF480601B494860A01EC4B268
:101330000846406840EA844048600846406840F4F7
:10134000803048601A48006840F032001849086050
:101350001148006840F080700F49086000BF0E48D7
:101360000068400E0028FAD00B48406840F00200A8
:101370000949486005E008484068C0F3870505F062
:101380000305022DF7D130BD80FFFF1F08ED00E0FF
:101390000000FA0500E400E00010024008000140EF
:1013A000000401400000FFF8FFFFF6FE007000405F
:1013B00000200240014600BF704700BF494A128822
:1013C00002F04002002AF9D0C2B2464B1B1D1A801F
:1013D000704710B586B00446012144F2040000F0C5
:1013E0003FFD4FF40070ADF8140003208DF8160097
:1013F00018208DF8170005A93B4800F075FA4FF446
:101400008060ADF8140004208DF8170005A9364857
:1014100000F06AFA25208DF8000003208DF8010005
:101420008DF8020001208DF80300684600F093F962
:1014300001940020ADF80800ADF80A00ADF80C00EA
:10144000ADF810000C20ADF80E0001A9254801F000
:10145000BCFC012240F22551224801F04EFD012141
:10146000204801F03EFD06B010BD10B540F22551F8
:101470001C4801F027FE10B31A4801F0A3FDC4B2C6
:101480001A48008800F40040C8B91848008800F4E1
:10149000804060B10A2C03D000201449088020E06D
:1014A0001248008840F400401049088019E00D2CD3
:1014B00006D10E48008840F480400C49088010E0B6
:1014C0000A480088C0F30D0009490C5407480088F9
:1014D000401C0649088008460088C72801DD002016
:1014E000088010BD0038014000080140D4000020F1
:1014F000200100202DE9F04705460C4682260027F2
:101500004FF000084FF000094FF0000A284602F0A3
:101510006DF87A490860204602F068F8784908605A
:10152000BDE8F08770B586B00446812C01D0802CD0
:1015300006D10120734908800020734908700CE02F
:1015400070480088012808D16F4909784DF821407A
:101550006D480078401C6C4908706B48007804287E
:101560005AD1DDE9000101EB002068490860DDE99E
:10157000020101EB002066490860644D2B68002BD6
:1015800001DB1D4600E05D42B5F57A6F29DC604D58
:101590002A68002A01DB154600E05542B5F57A6F4E
:1015A0001FDC5A4D2D685B4E3668A91B002901DBF4
:1015B0000D4600E04D4240F2DC56B5420DDC544D84
:1015C0002D68554E3668A81B002801DB054600E053
:1015D000454240F2DC56B5420ADD504D2D68012DE2
:1015E00006D14D4801684B480068FFF783FF10E0C3
:1015F0004748016845480068FFF77CFF434800689A
:101600004449086042480068434908600120434952
:10161000086000203B49088006B070BD10B540F25C
:1016200025513F4801F04EFD58B140F225513C484C
:1016300001F072FD3A4801F0C5FC04462046FFF770
:1016400071FF10BD10B586B004460121082000F0DE
:1016500007FC0121880400F010FC314801F072FB06
:101660004FF48060ADF8100003208DF812001820B0
:101670008DF8130004A92B4800F036F94FF40060F0
:10168000ADF8100004208DF8130004A9254800F0DF
:101690002BF900940020ADF80400ADF80600ADF879
:1016A0000800ADF80C000C20ADF80A0069461C4893
:1016B00001F08BFB01211A4801F013FC012240F2DA
:1016C0002551174801F019FC012240F22441144829
:1016D00001F013FC27208DF8140000208DF8150070
:1016E00002208DF8160001208DF8170005A800F0E3
:1016F00032F800200349088006B010BD0001002028
:1017000004010020D8000020EC000020DC000020B4
:10171000E0000020E4000020E8000020F0000020AD
:1017200000480040000C014006488047064800473A
:10173000FEE7FEE7FEE7FEE7FEE7FEE7FEE7FEE781
:10174000FEE7FEE7FF0200083101000831490143CE
:10175000314A1160704770B5002100230F22C47810
:1017600004B32D4C246804F4E064C4F5E064210A59
:10177000C1F10403CA40447804FA03F184781440A8
:1017800021430901254C0678A155047804F01F0572
:101790000124AC4005786D11AD0005F1E025C5F8D8
:1017A000004109E0047804F01F050124AC401C4D01
:1017B0000678761145F8264070BD1A4A0A40024361
:1017C000154B1B1F1A60704739B1134A121D12685E
:1017D0000243114B1B1D1A6006E00F4A121D1268CE
:1017E00082430D4B1B1D1A607047042808D14FF02F
:1017F000E021096941F004014FF0E022116107E0A6
:101800004FF0E021096921F004014FF0E02211615D
:10181000704700000000FA050CED00E000E400E075
:1018200080E100E080FFFF1F10B50446CC488442F1
:1018300008D10121042000F02DFB0021042000F03C
:1018400029FB46E0C748844208D10121082000F066
:1018500021FB0021082000F01DFB3AE0C248844231
:1018600008D10121102000F015FB0021102000F00C
:1018700011FB2EE0BD48844208D10121202000F058
:1018800009FB0021202000F005FB22E0B84884423B
:1018900008D10121402000F0FDFA0021402000F095
:1018A000F9FA16E0B348844208D10121802000F003
:1018B000F1FA0021802000F0EDFA0AE0AE488442FF
:1018C00007D10121801500F0E5FA0021A01500F0F4
:1018D000E1FA10BD10B50121084600F0DBFA002145
:1018E000012000F0D7FA10BD2DE9F0410246002595
:1018F0000026002000230024002791F803C00CF0EC
:101900000F0591F803C00CF0100CBCF1000F03D0D0
:1019100091F802C04CEA050591F800C0BCF1000F37
:1019200031D0146800202BE04FF0010C0CFA00F3CA
:10193000B1F800C00CEA03069E4220D183004FF0AC
:101940000F0C0CFA03F7BC4305FA03FC4CEA040441
:1019500091F803C0BCF1280F06D14FF0010C0CFA2E
:1019600000FCC2F814C00AE091F803C0BCF1480FB3
:1019700005D14FF0010C0CFA00FCC2F810C0401C5D
:101980000828D1D31460B1F800C0BCF1FF0F34DDDA
:10199000546800202EE000F1080C4FF0010808FA0E
:1019A0000CF3B1F800C00CEA03069E4221D183007B
:1019B0004FF00F0C0CFA03F7BC4305FA03FC4CEA9A
:1019C000040491F803C0BCF1280F05D100F1080C04
:1019D00008FA0CF8C2F8148091F803C0BCF1480F63
:1019E00007D100F1080C4FF0010808FA0CF8C2F812
:1019F0001080401C0828CED35460BDE8F0814FF61B
:101A0000FF710180022181700421C170704702467C
:101A1000002093680B400BB1012000E000207047CC
:101A20000146886880B2704702460020D3680B40A8
:101A30000BB1012000E0002070470146C86880B269
:101A4000704701617047416170470AB1016100E070
:101A500041617047C16070474FF480320A43826130
:101A60008161826182698269704702460020434B2E
:101A700018684FF68073184040EA021008433F4B45
:101A8000186070473E49C8617047F0B50A460023A8
:101A900000240021002500F00046B6F1004F02D1DD
:101AA000364EF16901E0354E7168C0F3034583B2EB
:101AB00000F44016B6F5401F08D121F070612F4E9A
:101AC000766826F070662D4F7E6012E000F4801676
:101AD000B6F5801F06D1032606FA05F4A14341F0AE
:101AE000706106E0460D360103FA06F6B14341F097
:101AF000706122B1460D360103FA06F6314300F05B
:101B00000046B6F1004F02D11C4EF16101E01B4EC0
:101B10007160F0BD30B500228B071C0F0F2303FA54
:101B200004F2164B08338C1053F824309343134CB3
:101B300008348D1044F8253023468C1053F8243097
:101B40008C07240F00FA04F423430C4C08348D1046
:101B500044F8253030BD0A49DC3108607047000088
:101B600000080140000C0140001001400014014039
:101B700000180140001C014000200140000001400D
:101B800000002042DF48006840F00100DD490860A5
:101B900008464068DC490840DA4948600846006861
:101BA000DA490840D74908600846006820F48020D8
:101BB00008600846406820F4FE0048604FF41F00AB
:101BC00088607047CF49096821F48031CD4A11609F
:101BD0001146096821F480211160B0F5803F03D0DF
:101BE000B0F5802F0ED106E0C649096841F4803176
:101BF000C44A116007E0C349096841F4A021C14A01
:101C0000116000E000BF00BF704710B50146002220
:101C1000002300204A11012A02D1BA4C236806E0B1
:101C2000022A02D1B74C236A01E0B64C636A01F084
:101C30001F02012494401C400CB1012000E0002050
:101C400010BD38B5002000900024002500BF3120D1
:101C5000FFF7DBFF05460098401C00900098B0F5A8
:101C6000A06F01D0002DF2D03120FFF7CEFF08B1D8
:101C7000012400E00024204638BD01460020A14A8E
:101C8000106820F0F80040EAC10010607047A049D9
:101C900008607047024600209A4B586820F47C1078
:101CA00042EA01031843974B586070479849086609
:101CB000704701460020934A506820F00300084313
:101CC000506070478F48406800F00C007047014634
:101CD00000208C4A506820F0F000084350607047A4
:101CE00001460020874A506820F4E06008435060B5
:101CF000704701460020834A506820F4605040EA53
:101D0000C1005060704729B17E4A527A02437D4B30
:101D10005A7204E07B4A527A82437A4B5A72704775
:101D20007B49D8310860704701460020754A5068E9
:101D300020F440400843506070470021714A20322F
:101D40001170704A82F82010012802D004280AD1AC
:101D500004E001216B4A2032117005E00521694A37
:101D60002032117000E000BF00BF70476949086071
:101D700070476449096A0143624A116270476549C4
:101D800044390860704730B5002100220024002348
:101D90005C4D6D6805F00C0121B1042905D00829BE
:101DA00023D105E05C4D056022E05B4D05601FE03E
:101DB000544D6D6805F47012524D6D6805F4803411
:101DC000022505EB92421CB9544D554305600BE0CA
:101DD0004C4D6D6805F400351DB1504D55430560FF
:101DE00002E04D4D5543056002E04B4D056000BFDC
:101DF00000BF444D6D6805F0F0010909484D6B5C6A
:101E00000568DD4045603F4D6D6805F4E061090AF5
:101E1000434D6B5C4568DD4085603A4D6D6805F467
:101E20006051C90A3E4D6B5C4568DD40C560354D6B
:101E30006D6805F44041890B3A4D6B5CC568B5FB94
:101E4000F3F5056130BD29B12E4A526902432D4B8D
:101E50005A6104E02B4A526982432A4B5A61704707
:101E600029B1284A92690243264B9A6104E0254A27
:101E700092698243234B9A61704729B1214AD26902
:101E80000243204BDA6104E01E4AD26982431D4BB3
:101E9000DA61704729B11B4AD2680243194BDA60F4
:101EA00004E0184AD2688243164BDA60704729B1C1
:101EB000144A12690243134B1A6104E0114A126971
:101EC0008243104B1A6170471249403908607047CD
:101ED0000F49C86470470B49C87170470948406A88
:101EE00040F0807007494862704701460020054A6B
:101EF00092680A400AB1012000E0002070470149C1
:101F000088727047001002400000FFF8FFFFF6FEE5
:101F1000000042428004424200127A0000093D0063
:101F2000080100201801002010B50446FE48844234
:101F300008D10121C014FFF7ADFF0021E014FFF725
:101F4000A9FFC4E0B4F1804F08D101210846FFF792
:101F5000AEFF00210120FFF7AAFFB8E0F34884425A
:101F600008D101210220FFF7A2FF00210220FFF784
:101F70009EFFACE0EE48844208D101210420FFF727
:101F800096FF00210420FFF792FFA0E0E948844279
:101F900008D101210820FFF78AFF00210820FFF760
:101FA00086FF94E0E448844208D101211020FFF725
:101FB0007EFF00211020FFF77AFF88E0DF4884428F
:101FC00008D101212020FFF772FF00212020FFF718
:101FD0006EFF7CE0DA48844208D101214014FFF70B
:101FE00059FF00216014FFF755FF70E0D548844287
:101FF00009D10121C804FFF74DFF00214FF4002053
:10200000FFF748FF63E0D048844209D10121080569
:10201000FFF740FF00214FF48010FFF73BFF56E031
:10202000CA48844209D101214805FFF733FF002146
:102030004FF40010FFF72EFF49E0C548844208D155
:1020400001214020FFF733FF00214020FFF72FFF41
:102050003DE0C048844208D101218020FFF727FFDE
:1020600000218020FFF723FF31E0BB48844208D1E4
:1020700001218015FFF71BFF0021A015FFF717FFB7
:1020800025E0B648844209D101210804FFF702FF88
:1020900000214FF48030FFF7FDFE18E0B048844285
:1020A00009D101214804FFF7F5FE00214FF400306B
:1020B000FFF7F0FE0BE0AB48844208D10121880411
:1020C000FFF7E8FE00214FF48020FFF7E3FE10BD8C
:1020D00000220288944B98420ED0994B98420BD024
:1020E000B0F1804F08D0914B984205D0904B984268
:1020F00002D0904B984204D14FF68F731A404B8810
:102100001A438D4B984207D08C4B984204D04FF61F
:10211000FF431A40CB881A4302808B8883850B8843
:102120000385814B98420BD0854B984208D08B4B4E
:10213000984205D08A4B984202D08A4B984201D1EE
:102140000B7A038601238382704770B50024002236
:102150000023058C4FF6FE7635400584028C83887B
:10216000048B4FF68F752C40B51E2C400D882C43E8
:10217000751E2A400D892A434D882A436A4DA8427C
:102180000BD06F4DA84208D0744DA84205D0744DB5
:10219000A84202D0734DA84213D14FF6F7752A40DA
:1021A0004D892A434FF6FB752A408D882A434FF606
:1021B000FF652B404FF6FF552B408D892B43CD8972
:1021C0002B4383800483CD888586028470BD70B5DF
:1021D000002400220023058C4FF6EF76354005845D
:1021E000028C8388048B48F6FF752C404FF6FF4520
:1021F0002C400D884FF6FF7606EA05252C434FF656
:10220000DF752A400D8906EA05152A434D8806EA3E
:1022100005152A43444DA84202D0494DA8421DD17C
:102220004FF67F752A404D894FF6FF7606EA051571
:102230002A434FF6BF752A408D8806EA05152A43C2
:102240004FF6FF352B404FF2FF752B408D8906EA84
:1022500085052B43CD8906EA85052B4383800483BE
:10226000CD880587028470BD70B50024002200234C
:10227000058C4FF6FF6635400584028C8388848B7D
:102280004FF68F752C404FF6FC752C400D882C4373
:102290004FF6FF552A400D894FF6FF7606EA0525D1
:1022A0002A434D8806EA05252A431F4DA84202D03D
:1022B000234DA8421DD14FF2FF752A404D894FF69C
:1022C000FF7606EA05252A434FF6FF352A408D881A
:1022D00006EA05252A434EF6FF752B404DF6FF759D
:1022E0002B408D8906EA05152B43CD8906EA051595
:1022F0002B4383808483CD888587028470BD70B52D
:10230000002200230024058C4EF6FF76354005841C
:10231000038C8488828B48F6FF752A404FF6FF4570
:102320002A400D8820E00000002C014000040040FD
:1023300000080040000C0040001000400014004065
:1023400000340140004C0140005001400054014065
:1023500000180040001C00400020004000400140E8
:1023600000440140004801404FF6FF7606EA05258B
:102370002A434DF6FF752B400D8906EA05352B43A0
:102380004D8806EA05352B43FA4DA84202D0FA4D96
:10239000A84208D14BF6FF752C408D894FF6FF7689
:1023A00006EA85152C4384808283CD88A0F84050AE
:1023B000038470BD828B4FF2FF331A408283828B7D
:1023C0004FF6FF7303EA01231A4382837047F0B587
:1023D0000C461546002200210026078C4EF6FF7C95
:1023E00007EA0C070784828B018C4FF6FF7707EA18
:1023F000043640F6FF473A404FF6FF7707EA0527D5
:102400003A434FF6FF7707EA03373A43D94FB842CA
:102410000ED0D94FB8420BD0B0F1804F08D0D74F73
:10242000B84205D0D64FB84202D0D64FB84206D1F6
:102430004DF6FF77394046F48057394305E047F6BB
:10244000FF57394044F48057394382830184F0BDFB
:10245000828B4FF6F3731A408283828B0A43828306
:102460007047F0B50C461546002200210026078C67
:102470004FF6FF6C07EA0C070784828B018C4FF63E
:10248000FF7707EA04264FF60C773A404FF6FF77BE
:1024900007EA03172F433A43B64FB8420ED0B64F60
:1024A000B8420BD0B0F1804F08D0B44FB84205D03D
:1024B000B34FB84202D0B34FB84206D14FF6FF57E0
:1024C000394046F48077394305E04FF2FF573940F1
:1024D00044F48077394382830184F0BD028B4FF24C
:1024E000FF331A400283028B4FF6FF7303EA012386
:1024F0001A4302837047F0B50C46154600220021AE
:102500000026078C4FF6EF7C07EA0C070784028B46
:10251000018C4FF6FF7707EA041640F6FF473A4072
:102520004FF6FF7707EA03373A434FF6FF7707EA9C
:1025300005273A438F4FB8420ED08F4FB8420BD089
:10254000B0F1804F08D08D4FB84205D08C4FB842C3
:1025500002D08C4FB84206D14FF6DF77394046F0B3
:102560001007394305E04FF65F77394044F0100714
:10257000394302830184F0BD028B4FF6F3731A4096
:102580000283028B0A4302837047F0B50C4615465E
:1025900000220021068C4FF6FE773E400684028B17
:1025A000018C4FF60C7632407E1C06EA03162E4351
:1025B0003243704EB0420ED06F4EB0420BD0B0F1ED
:1025C000804F08D06D4EB04205D06D4EB04202D063
:1025D0006C4EB04206D14FF6FD76314044F0010614
:1025E000314305E04FF6F576314044F001063143C2
:1025F00002830184F0BD70B505460C465D488542F6
:102600000ED05D4885420BD0B5F1804F08D05B48B5
:10261000854205D05A48854202D05A48854200D1A9
:1026200000E000BF208850B92389A288618828462D
:10263000FFF7ABFFE1882846FFF79EFF25E02088E3
:1026400004280AD12389A28861882846FFF753FF0E
:10265000E1882846FFF742FF17E0208808280AD1C2
:102660002389A28861882846FFF7FBFEE188284677
:10267000FFF7EEFE09E02389A28861882846FFF76C
:10268000A6FEE1882846FFF795FE70BD2DE9F041D2
:1026900005460C4600260127608808B9022600E09E
:1026A0000026A088012801D1022700E00127208808
:1026B000A0B92389A28861882846FFF766FFE188D0
:1026C0002846FFF759FF23893A4631462846FFF747
:1026D00012FFE1882846FFF701FF13E02389A28853
:1026E00061882846FFF707FFE1882846FFF7F6FED6
:1026F00023893A4631462846FFF747FFE1882846B6
:10270000FFF73AFFBDE8F0810A884B881A438B88AF
:102710001A43CB881A430B891A434B891A438B8976
:102720001A43A0F8442070474FF6FF7181800021C2
:102730000180C18041800172704700210180418089
:102740008180C180018141818181C18170470021E7
:1027500001804180012181800021C1800181704779
:102760000021018041808180C1800181418181817E
:1027700070470000002C014000340140000400407C
:1027800000080040000C004021B1028842F0010224
:10279000028004E002884FF6FE731A400280704700
:1027A00031B1B0F8442042F40042A0F8442005E0E2
:1027B000B0F84420C2F30E02A0F8442070471AB1CA
:1027C00083890B43838102E083898B438381704734
:1027D0008182704741EA0203A0F8483070471AB17D
:1027E00083890B43838102E083898B438381704714
:1027F00001894FF6F8721140018170470A460021A5
:1028000001894FF68F73194011430181704730B52C
:1028100004460D4629462046FFF7F0FF208940F088
:102820000700208130BD2DE9F04104460D461646D3
:102830001F46602D06D13B46012231462046FFF758
:102840005AFE05E03B46012231462046FFF79DFE39
:1028500029462046FFF7D2FF208940F0070020815B
:10286000BDE8F08130B50C4600210189C9B24FF6B0
:10287000FF7505EA0325154325432943018130BD32
:102880002DE9F04105460E4617469846002443467A
:102890003A4631462846FFF7E5FF2C894FF6F87097
:1028A000044044F007044FF68F70044044F0700475
:1028B0002C81BDE8F081F0B504460D4616461F4652
:1028C0003B46324629462046FFF7CCFF208940F49C
:1028D00080402081F0BD0185828270470A46002138
:1028E00001884FF68F731940114301807047F0B58E
:1028F0000C4615461E460021002200230189028B4A
:10290000038C4FF6F877394021434FF6FC473A40A5
:1029100040F201173A434FF6DD773B404FF6FF7721
:1029200007EA06172F433B43018102830384F0BD6E
:102930000A460021018B4FF68F7319401143018322
:1029400070470A460021018B48F6FF7319404FF685
:10295000FF7303EA02231943018370470A460021EB
:10296000818B4FF68F7319401143818370470A465C
:102970000021818B48F6FF7319404FF6FF7303EA7D
:10298000022319438183704721B1028842F08002FB
:10299000028004E002884FF67F731A40028070477D
:1029A00021B1828842F00402828004E082884FF6DE
:1029B000FB731A408280704721B1828842F008027E
:1029C000828004E082884FF6F7731A408280704755
:1029D00021B1828842F00102828004E082884FF6B1
:1029E000FE731A40828070470A460021018B4FF621
:1029F000F77319401143018370470A460021018B88
:102A00004FF2FF7319404FF6FF7303EA0223194395
:102A1000018370470A460021818B4FF6F7731940F6
:102A20001143818370470A460021818B4FF2FF7367
:102A300019404FF6FF7303EA02231943818370475D
:102A40000A460021018B4FF6FB73194011430183A5
:102A500070470A460021018B4FF6FF3319404FF6AD
:102A6000FF7303EA02231943018370470A460021DA
:102A7000818B4FF6FB7319401143818370470A46DF
:102A80000021818B4FF6FF3319404FF6FF7303EAA5
:102A900002231943818370470A460021018B4FF6B8
:102AA0007F7319401143018370470A460021018B4F
:102AB000C1F30E014FF6FF7303EA022319430183AA
:102AC00070470A460021818B4FF67F7319401143EE
:102AD000818370470A460021818BC1F30E014FF6B6
:102AE000FF7303EA02231943818370470A460021DA
:102AF000018C4FF6FD7319401143018470470A465B
:102B00000021018C4FF6F77319401143018470477F
:102B10000A460021018C4FF6DF7319404FF6FF7310
:102B200003EA02131943018470470A460021018C0D
:102B30004FF67F7319404FF6FF7303EA02131943F0
:102B4000018470470A460021018C4FF6FF5319405B
:102B50004FF6FF7303EA02231943018470470A46C4
:102B60000021018C4FF2FF7319404FF6FF7303EA07
:102B700002231943018470470A460021018C4DF657
:102B8000FF7319404FF6FF7303EA023319430184C0
:102B9000704730B5002301248C40A3B2048C9C43C1
:102BA0000484048C02FA01F5ADB22C43048430BDD8
:102BB00030B5002304248C40A3B2048C9C430484CD
:102BC000048C02FA01F5ADB22C43048430BD70B51B
:102BD0000346002000241846183001258D40ACB271
:102BE0001D8CA5431D8409B1082909D100EB6100A2
:102BF000056825F0700505600568154305600EE061
:102C00000D1FC5F34E052844056825F4E045056011
:102C100005684FF6FF7606EA02263543056070BD6B
:102C200021B1028842F00202028004E002884FF6DD
:102C3000FD731A400280704721B1028842F00402FD
:102C4000028004E002884FF6FB731A40028070474E
:102C500021B1828842F08002828004E082884FF6AF
:102C60007F731A408280704702884FF6F7731A40CC
:102C7000028002880A430280704782884FF68F7371
:102C80001A40828082880A438280704702894FF608
:102C9000F8731A40028102890A430281704702894F
:102CA0004FF67F731A40028102890A4302817047FE
:102CB000818470478185704781867047018770479E
:102CC00081877047A0F84010704702884FF6FF4395
:102CD0001A40028002880A43028070470146888EAB
:102CE00070470146088F70470146888F704701463C
:102CF000B1F8400070470146888C70470146088D46
:102D0000704702460020138A0B400BB1012000E0FF
:102D100000207047CA430282704730B50246002047
:102D200000230024158A05EA0103958905EA0104B8
:102D300013B10CB1012000E0002030BDCA43028273
:102D40007047000010B50446FB48844209D10121B8
:102D50008803FFF79FF800214FF48040FFF79AF8AF
:102D600032E0F648844209D101214804FFF79FF878
:102D700000214FF40030FFF79AF825E0F048844234
:102D800009D101218804FFF792F800214FF4802037
:102D9000FFF78DF818E0EB48844209D10121C804FF
:102DA000FFF785F800214FF40020FFF780F80BE0D3
:102DB000E548844208D101210805FFF778F8002191
:102DC0004FF48010FFF773F810BD2DE9F04786B07F
:102DD00005460E460024A24600BFA1460027B08942
:102DE00000B100BF2F462C8A4CF6FF700440F088DB
:102DF00004432C82AC894EF6F3100440B08831892C
:102E00000843718908430443AC81AC8A4FF6FF4004
:102E10000440B0890443AC8201A8FEF7B4FFC64861
:102E2000874202D1DDF810A001E0DDF80CA0A889EE
:102E300000F4004040B10AEBCA0000EB0A10316810
:102E40004900B0FBF1F807E00AEBCA0000EB0A10FA
:102E500031688900B0FBF1F86420B8FBF0F00401A0
:102E60002009642101FB1089A88900F4004040B1C9
:102E7000322000EBC900B0FBF1F000F00700044382
:102E800008E0322000EB09106421B0FBF1F000F003
:102E90000F0004432C8106B0BDE8F0874FF41651B3
:102EA000016000218180C18001810C2141810021CC
:102EB0008181704710B502460020108A4FF2FF034F
:102EC00018400B884C8823438C882343CC882343A9
:102ED0001843108210BD0021018041808180C18093
:102EE000704721B1828942F40052828104E08289D4
:102EF0004DF6FF731A4082817047F0B503460024F7
:102F000000260025002040F66A17B94200D100BF14
:102F10001846C1F3421401F01F06012707FA06F50F
:102F2000012C01D10C3004E0022C01D1103000E062
:102F300014301AB107682F43076002E00768AF43F7
:102F40000760F0BD1AB1838A0B43838202E0838A53
:102F50008B4383827047028A4FF6F0731A400282D5
:102F6000028A0A430282704782894FF2FF731A4035
:102F7000828182890A438281704721B1828942F02D
:102F80000202828104E082894FF6FD731A40828139
:102F90007047028A4FF6DF731A400282028A0A43A0
:102FA0000282704721B1028A42F48042028204E028
:102FB000028A4BF6FF731A4002827047C1F308027F
:102FC0008280704701468888C0F308007047818975
:102FD00041F0010181817047028BD2B20283028BE2
:102FE00042EA012202837047028B02F47F4202838D
:102FF000028B0A430283704721B1828A42F0200289
:10300000828204E0828A4FF6DF731A408282704720
:1030100021B1828A42F01002828204E0828A4FF655
:10302000EF731A408282704721B1828A42F008020F
:10303000828204E0828A4FF6F7731A4082827047D8
:1030400021B1828942F40042828103E08289C2F385
:103050000E028281704721B1828A42F4006282822C
:1030600004E0828A4FF2FF731A4082827047828A9C
:103070004FF6FB731A408282828A0A43828270472B
:1030800021B1828A42F00202828204E0828A4FF6F3
:10309000FD731A408282704702460020B1F5007F1E
:1030A00000D100BF13880B400BB1012000E00020CD
:1030B000704701F40072B2F5007F00D100BFCA432F
:1030C0000280704770B502460024002300250020CE
:1030D00040F66A16B14200D100BFC1F3421501F0BB
:1030E0001F03012606FA03F3012D02D1968933400E
:1030F00006E0022D02D1168A334001E0968A334061
:103100000C12012606FA04F41688344013B10CB1EF
:10311000012000E0002070BD10B50022002340F621
:103120006A14A14200D100BF0A1201249440A3B244
:10313000DC43048010BD0000003801400044004022
:1031400000480040004C004000500040F0B480EACD
:103150000102D40F4200B2EB410F02D202460846F0
:1031600011464A0042D0C30DDDB2C1F3C752AD1AB9
:10317000202D35DAC1F3160141F4000204B15242A8
:10318000C5F1200602FA06F12A411044B3EBD05FE4
:1031900023D0C4B1012DA0EBC35009DCF0BC4FF02B
:1031A000004202EAC352DBB200F5000000F004BBAB
:1031B000400000F1807000EBC350A0F1807040EA45
:1031C000D170490009E0490841EAC071A0EBC35041
:1031D00000F50000400800EBC350F0BC00F0E3BA7B
:1031E0006142012202EB4101001BF6E7F0BC70478F
:1031F00081F00041AAE780F00040A7E780EA0102E1
:1032000010B502F00043400022D04A001FD0010E4A
:1032100001EB1261C0F35600C2F3560240F4000005
:1032200042F40002A0FB022000047F39140400D005
:10323000401C50EA124001D44000491EC2B20C06A4
:1032400004EBD010401C4008802A02D003E000208C
:1032500010BD20F00100002900DA0020184310BD45
:1032600030B480EA010202F0004530F0004221F063
:10327000004013D090B1C30DD40DC2F31601C0F3BA
:103280001600E41A41F4000140F400027D3491423A
:1032900001D3641C00E04900002C02DA30BC00209D
:1032A00070474FF400000023914201D3891A034371
:1032B00040084FEA4101F7D151B1914202D14FF09C
:1032C000004105E002D24FF0010101E06FF0010181
:1032D00003EBC450284430BC00F065BA2DE9FE4F22
:1032E000804681EA0300C00F0C46009021F00041A7
:1032F00023F00045B8EB0200A94105D24046214623
:1033000090461C460B46024623F00040104347D02F
:10331000270DC7F30A00C3F30A510290401A019027
:1033200040286BDAC3F3130040F4801B00989246E8
:1033300020B10023D2EB030A63EB0B0B0198594633
:10334000C0F14002504600F0FDF906460D465046D9
:103350005946019A00F015FA10EB0800614100246B
:1033600087EA115284EAE7731A4340D0009A62B3A5
:10337000019A012A4FEA075215DC001B61EB02019A
:103380004FF0004202EA0752CDE90042001C41F52D
:10339000801132462B4600F04CFA03B0BDE8F08FA6
:1033A00040462146F9E7001B61EB0201001C41F594
:1033B000801300185B412018A2F5001747EB0301AA
:1033C00040EAD570B6196D4111E06D084FEA360636
:1033D00045EAC0754FEA0752001B61EB0201001C71
:1033E00041F5801149084FEA300000195141324639
:1033F0002B4603B0BDE8F04F00F00CBA0098012254
:1034000040000023D0EB020263EBE07300982146FA
:103410004FEAE074B8EB000061EB0401E9E783F0E8
:1034200000435BE781F0004158E72DE9FE4F81EA58
:10343000030404F0004421F0004100944FF0000B1D
:1034400023F0004350EA01045ED052EA03045BD04B
:10345000C3F30A54C1F30A552C44A4F2F334019483
:10346000A0FB0254C1F3130141F48011C3F3130311
:1034700043F4801301FB024400FB034E840A970AC5
:1034800044EA815447EA8357A4FB076802958D0AF2
:1034900005FB07854FEA932C04FB0C542705029D7E
:1034A0004FEA065847EA1637B5EB08056EEB070CEE
:1034B000870E920E47EA811742EA8312A7FB0201A8
:1034C000B6EB0B0164EB00042B0D43EA0C335E18E2
:1034D00044EB1C50DA465146E7FB0201C5F31304E6
:1034E0004FEA0B3343EA14534FEA0432019C43EA98
:1034F0000603A4F10C040294009CCDE900B400F092
:1035000098F903B0BDE8F08F00200146F9E72DE9F6
:10351000F04D81EA030404F0004B21F0004514460D
:103520004FF0000A23F0004150EA050220D054EA8F
:1035300001021DD0C5F30A570246C5F31303C1F3B8
:103540001300C1F30A5640F4801543F48013A7EB2F
:103550000608101BD64608F2FD3873EB050002D3AF
:1035600008F1010801E092185B41B8F1000F03DA9D
:1035700000200146BDE8F08D00204FF48011064682
:1035800084460EE0171B73EB050705D3121B63EB94
:10359000050306434CEA010C49084FEA3000921833
:1035A0005B4150EA0107EDD152EA030012D082EAF2
:1035B000040083EA0501084305D0101BAB4106D285
:1035C0000122002306E000224FF0004302E06FF0EA
:1035D000010253101AEB06004CEB085110EB0A00E5
:1035E00041EB0B01BDE8F04D00F014B9C10F80EACA
:1035F000E0700844CA079623002100F0DDB80EB53C
:10360000C10F80EAE0700844CA07002140F233434A
:103610008DE80E000A460B4600F00BF903B000BD22
:1036200000F0004220F00040C10DC0F3160040F44D
:1036300000007F2901DA00207047962903DCC1F1E0
:103640009601C84001E096398840002AF4D04042F3
:10365000704770B5C1F30A5201F000450024C1F370
:10366000130140F2FF3341F480119A4201DA002045
:1036700070BD40F233439A42A2F2334203DC52421D
:1036800000F06FF800E090402C43F1D0404270BD54
:1036900000F0004230F000400AD0C10D01F5607129
:1036A000C0F3160042EA0151C208400711437047B7
:1036B00000200146704701F0004330B421F0004182
:1036C00050EA010206D00A0DA2F56072C1F313019F
:1036D000002A02DC30BC00207047440F44EAC104D9
:1036E000C100E01830BC00EBC25000F05CB8000034
:1036F000002801DBC0F10040002901DBC1F10041DD
:1037000081427047002801DBC0F10040002901DB45
:10371000C1F100418842704730B50B460146002098
:103720002022012409E021FA02F59D4205D303FA83
:1037300002F5491B04FA02F52844151EA2F1010204
:10374000F1DC30BD202A04DB203A00FA02F100202F
:1037500070479140C2F1200320FA03F319439040CF
:103760007047202A04DB203A21FA02F0002170473A
:1037700021FA02F3D040C2F12002914008431946D9
:103780007047202A06DBCB17203A41FA02F043EAC1
:10379000E07306E041FA02F3D040C2F1200291400A
:1037A0000843194670470029A8BF7047401C4900CC
:1037B00008BF20F00100704710B4B0FA80FC00FA96
:1037C0000CF050EA010404BF10BC704749B1CCF1C1
:1037D000200421FA04F411FA0CF118BF012121434D
:1037E0000843A3EB0C01CB1D4FEA00614FEA102008
:1037F00042BF002010BC704700EBC35010440029AA
:10380000A4BF10BC7047401C490008BF20F0010055
:1038100010BC704710B5141E73F1000408DA401C88
:1038200041F1000192185B411A4301D120F00100DF
:1038300010BD2DE9F04D92469B4611B1B1FA81F2CF
:1038400002E0B0FA80F220329046FFF77BFF044698
:103850000F4640EA0A0041EA0B0153465A46084324
:1038600013D0114653EA010019D0C8F14002504666
:10387000FFF777FF05460E46504659464246FFF78A
:1038800061FF084305D0012004E020463946BDE829
:10389000F08D0020054346EAE0762C4337430A9832
:1038A0006305E40AA0EB08000022FD0A44EA47543D
:1038B0000A3002D500200146E9E7010510196941E7
:1038C000DDE9084500196941BDE8F04DA2E770B592
:1038D00021F0004303430CD0C1F30A550024D5EB7B
:1038E000040564EB0403D617AD1AB34102DB0020D4
:1038F000014670BD201841EB025170BD2DE9F04D1D
:1039000000231A461B1A8A4103DB00200146BDE84A
:10391000F08DC1F30A52C1F3130141F480154FF049
:10392000000BD10702D100186D41521E002704463A
:1039300040F2FF11384601EB620A3E4680460246DD
:1039400000204FF48011FFF70CFFC2197141BB1822
:1039500046EB0100B4EB030C75EB000C04D3E41A46
:1039600065EB000517460E46241908F101006D416C
:1039700080463428E3DDF91946EB0600091BA8410F
:1039800003D24FF0FF32134601E0002213461BEB37
:10399000070046EB0A51BDE8F04DFFF73BBF0000C2
:1039A000064C074D06E0E06840F0010394E807008C
:1039B00098471034AC42F6D3FCF7BEFB084A000827
:1039C000284A00080EB540F2334102910021CDE9AA
:1039D00000110A460B46FFF72CFF03B000BD0000A4
:1039E0000FB4054B10B503A9044A029800F052FB2E
:1039F00010BC5DF814FB0000BB130008D0000020D1
:103A0000490050EAC12018BF04204A0D18BF40F0F9
:103A1000010040F2FF72B2EB515F08BF40F00200BC
:103A2000012808BF052070472DE9F74F144694B0D0
:103A30000021C4E902111599079121F00045C949F7
:103A40008D4206DC1599C4E9000117B00020BDE8DD
:103A5000F08FC549DFF814A3A9423CDD0799C44E95
:103A60000029C44FC44A1599534619DDFFF7D7FC06
:103A7000554506D0C14AC24BFFF7D1FCC4E900014D
:103A80000AE04FF0D352BE4BFFF7C9FC32463B462B
:103A9000FFF7C5FCC4E9000117B00120BDE8F08FB5
:103AA000FFF71CFC554506D0B44AB54BFFF716FC92
:103AB000C4E900010AE04FF0D352B14BFFF70EFC0E
:103AC00032463B46FFF70AFCC4E9000117B04FF04D
:103AD000FF30BDE8F08FAB49A942159978DB21F0A2
:103AE000004183468846A84AA84BFFF79EFC002267
:103AF000A74BFFF7F3FBFFF7ACFD0990FFF77FFD46
:103B000006460F469C4A5346FFF78FFC43465A46EB
:103B1000FFF788FC80468A46984A994B30463946DA
:103B2000FFF783FC2A0D01250B9242465346FFF70F
:103B300079FC032DC4E9000139D00B98C1F30A5177
:103B4000401A05EB45111139814230DA9148C346DC
:103B5000784400EB0510CDF80CA00C90D0E90023C0
:103B600030463946FFF761FC02460B460491069049
:103B700058460399FFF753FC80468A4602460B4697
:103B800058460399FFF74BFC049B069AFFF747FC46
:103B900083460C9803913946D0E902233046FFF75B
:103BA00044FC5A46039BFFF73AFC6D1CBDE707989F
:103BB0000028A2BF099817B0BDE8F08F616881F0B6
:103BC00000416160099817B04042BDE8F08FFFE7FF
:103BD00084461598C1F31301C0F30A50A0F2F530E2
:103BE0004FEA601800F01F06C6F120001390002075
:103BF0000690079041F4801E05206D4676B1664A16
:103C000008EB00017A4452F8213002EB8101B34005
:103C10004A68139922FA01F1194305E05F4908EB5C
:103C20000002794451F82210A1FB0E27A1FB0C13CE
:103C30001A449A4234BF0123002303EB070A05EB21
:103C40008003D3E901B70F448F4234BF0121002123
:103C500093448B4411B1934502D903E0934501D2BB
:103C6000012100E00021C3E901B7514445F82010CB
:103C7000011EA0F10100C1DC0298059F00F1005077
:103C8000800F12900298DDE903568000FFF7B7FC21
:103C9000834628460D91FFF795FE6FF01D02FFF752
:103CA00016FECDE90E013046FFF78CFE6FF03D02A7
:103CB000FFF70DFE80468A463846FFF783FE6FF019
:103CC0005D02FFF704FE0746424653461191FFF797
:103CD00005FBDDE90E23FFF701FB5A460D9BFFF7BD
:103CE000FDFA00250E465A4628460D9BFFF797FB26
:103CF000DDE90E23FFF793FB42465346FFF78FFBA8
:103D00003A46119BFFF78EFBDFF898A0244A5346F2
:103D1000FFF78BFB07468846234A244B314628464B
:103D2000FFF783FB3A464346FFF7D8FA0746884633
:103D30004FF0A842534631462846FFF776FB3A46F5
:103D40004346FFF7CBFA159A12F0004F04D0129AAF
:103D500081F0004152421292C4E90001129817B05A
:103D6000BDE8F08FFB21E93F7CD90240FB21F93F00
:103D70007370032E8A19A33B000040543163621A0A
:103D800061B4D03DFB21394183C8C96D305FE43F48
:103D90000000E03FC40D0000400D0000220D0000B7
:103DA000182D4454FB21F93D3326A611460B113C36
:103DB0002DE9FF4D21F0004807460C46B8F1795F28
:103DC00008DAFFF746FC002801BF0020324904B0A2
:103DD000BDE8F08D3A46234610461946FFF725FB0D
:103DE000054602462D480E460B460621784400F053
:103DF0005DF82A463346FFF718FBDDE902238246C9
:103E00008B4638462146FFF710FB04460F465246C4
:103E10005B4628463146FFF708FB22463B46FFF744
:103E2000FEFA07468A464FF0FF3228463146FFF732
:103E30004EFD1B4A90450ADA3A465346FFF7EFFA21
:103E400004B00022BDE8F04D134BFFF7EBBA154A62
:103E50004245A8BFA8F500154FF00004B8BF124DA9
:103E600022462B46FFF7DBFA0646884622462B46BB
:103E700000200949FFF7D3FA04460D463A46534657
:103E800030464146FFF7CBFA04B022462B46BDE848
:103E9000F04DFFF7C7BA00000000F03FF80A00003D
:103EA0003333D33F0000E93F0000D23F2DE9F0411A
:103EB0004F1E00EBC7010446D1E9000115461E461E
:103EC00037F006020DD02A463346FFF7AEFA7F1EC2
:103ED00004EBC703D3E90023FFF700FA37F006022B
:103EE000F1D1022F25D0042F13D0062F18BFBDE823
:103EF000F0812A463346FFF798FAD4E90A23FFF700
:103F0000EDF92A463346FFF790FAD4E90823FFF784
:103F1000E5F92A463346FFF788FAD4E90623FFF786
:103F2000DDF92A463346FFF780FAD4E90423FFF788
:103F3000D5F92A463346FFF778FAD4E90223FFF78A
:103F4000CDF92A463346FFF770FAD4E90023BDE8DD
:103F5000F041FFF7C3B900002DE9FF4D054621F000
:103F6000004084B00C46B0F1795F0BDA2846FFF7C9
:103F700047FD042808BF00F06FF8284608B0214626
:103F8000BDE8F08D2A460B461046FFF74EFA06466E
:103F90000F462A462346FFF748FA804626488A46B7
:103FA00032463B4605217844FFF780FF8346109850
:103FB000029160B3214A224B40465146FFF735FA41
:103FC000CDE900015A4640465146029BFFF72DFAC3
:103FD00082468846DDE906014FF0FF32FFF777FCA5
:103FE00052464346FFF71BFA32463B46FFF71DFA9F
:103FF000DDE90623FFF713FADDE90023FFF70FFAE7
:1040000008B02A462346BDE8F04DFFF70BBA0B4631
:104010005A4630463946FFF708FA084A084BFFF778
:104020005DF942465346FFF700FA08B02A46234698
:10403000BDE8F04DFFF752B9360A00004955555515
:104040005555C5BF0122FFF742BC0022134610465A
:104050001146FFF75CBA0000024A00201107FFF783
:1040600036BC000001FDFFFF02E008C8121F08C1B6
:10407000002AFAD170477047002001E001C1121FE9
:10408000002AFBD17047000001490860704700001A
:104090001C0100202DE9FF4F89B09B4604460025F6
:1040A00006E025280BD05A460B999047641C6D1CDE
:1040B00020780028F5D10DB02846BDE8F08F002704
:1040C000B8460122474900E0074314F8013F203B6E
:1040D00002FA03F00842F7D120782E2819D114F8FB
:1040E000010F47F004072A280ED06FF02F02207826
:1040F000A0F1300109290CD808EB880102EB41013D
:1041000000EB0108641CF2E70A98641C50F8048B69
:104110000A9020780028CED0642808D0692806D0DC
:1041200075281ED05A460B9990476D1C58E00A9985
:104130004FF00A0901C90A91002802DA40422D21F4
:1041400002E0390504D52B218DF82010012103E070
:10415000F90704D02021F7E78A4608AE0DE00021D8
:10416000FAE70A994FF00A0901C90A91F7E74946A7
:10417000FFF7D2FA303106F8011D0028F7D1ADEB78
:10418000060000F12009780701D44FF00108C84566
:1041900002DDA8EB090000E000208046002706E0D1
:1041A00008A85A46C05D0B9990476D1C7F1C574567
:1041B000F6DB04E030205A460B9990476D1CB8F1AD
:1041C0000001A8F10108F5DC05E016F8010B5A46DC
:1041D0000B9990476D1CB9F10001A9F10109F4DCBC
:1041E000641C65E7092801002DE9F04D8D4F21F091
:1041F000004A86B005460C46BA452ADBAAEB070002
:1042000028430AD08848824501DC1AD1CDB106B0D6
:104210002846BDE8F04DFFF715BF844A844B284679
:10422000FFF703F907460E46824A834B284621468C
:10423000FFF7FBF806B03A463346BDE8F04DFFF70E
:104240004DB80120FFF720FF06B0BDE8F04DFFF7A5
:10425000FCBE7A48824542DABAF1795F0BDA284629
:10426000FFF7CEFB042808BFFFF7F6FE284606B08E
:104270002146BDE8F08D2A460B461046FFF7D5F8DB
:10428000834602466E480E460B4606217844FFF7E9
:104290000DFE5A463346FFF7C8F8804669488A46FD
:1042A0005A46334604217844FFF700FE5A46334607
:1042B000FFF7BBF800223B46FFF710F802460B461B
:1042C00040465146FFF723F92A462346FFF7ADF84B
:1042D00006B02A462346BDE8F04DFEF7FFBF28464C
:1042E00024F0004100223D463B46FFF79BF84FF08B
:1042F000FF32FFF7ECFA0646024653480F460B46DC
:1043000006217844FFF7D2FD32463B46FFF78DF891
:10431000CDE900014D4832463B4604217844FFF781
:10432000C5FD32463B46FFF780F800222B46FEF7DC
:10433000D5FF834602913046394600F03BFA80466D
:1043400043480D46504517DCDDE900015A46029B03
:10435000FFF7DDF842462B46FFF767F842462B464B
:10436000FEF7BCFF0122FFF7B2FA304A304BFFF7ED
:1043700056F8304A304B4CE04FF0000A52460B469C
:104380004046FEF7ABFFCDE9031052462B461046E0
:104390001946FFF74AF832463B46FFF743F8DDE996
:1043A0000332FFF7B4F806460F46DDE900015A462E
:1043B000029BFFF7ACF88346009101223046394654
:1043C000FFF785FA194A1A4BFFF72CF806460F46F5
:1043D000012240462946FFF77AFA5A46009BFFF72A
:1043E00024F832463B46FFF71AF806460F460122EC
:1043F00050462946FFF76BFA0E4DDFF858802A46E3
:104400004346FFF70FF832463B46FFF70BF82A46C4
:104410004346FFF707F8002CD8BF81F0004106B0F3
:10442000BDE8F08D0000F03F0000F07F075C143322
:1044300026A6913C182D4454FB21F93F0000E03F93
:104440007005000086050000FA0400001005000059
:104450003333EF3FFB21E93F2DE9F84F04460D468A
:1044600021F0004000917349814211DC7249884279
:1044700001DC06D12CB120462946BDE8F84FFFF7F4
:10448000E1BD6E48002DCCBF6D496E49BDE8F88F87
:104490006D49814211DD6D498142D8BF4FF0FF3631
:1044A0006DDD20462946FFF7ABFA042808BFFFF769
:1044B000D3FD20462946BDE8F88F6549654F25F0B4
:1044C0000045814233DD6449814219DD00263246D0
:1044D0004FF0804320462946FEF700FF80468A467B
:1044E000012220462946FFF7F2F900223B46FEF75B
:1044F00096FF42465346FFF70AF804460D463EE053
:1045000001260022BA463B4620462946FEF7E6FE33
:1045100080460F460022534620462946FEF77FFF7D
:1045200042463B46FEF7F3FF04460D4627E04B4963
:1045300081421BDDDFF828A10226002253462046D7
:104540002946FEF772FF00223B46FEF7C7FE804673
:104550000F460022534620462946FEF760FF42469A
:104560003B46FEF7D4FF04460D4608E003262246EC
:104570002B4600203B49FEF7CAFF04460D46224663
:104580002B4610461946FEF750FF8B4682460246E0
:104590000B46FEF74AFF07460246334888460B465D
:1045A00006217844FFF782FC52465B46FEF73DFF4A
:1045B00082462E488B463A46434605217844FFF70B
:1045C00075FC3A464346FEF730FF02460B46002E86
:1045D000504659460CDAFEF781FE22462B46FEF77E
:1045E00024FF01B022462B46BDE8F04FFEF71ABF6C
:1045F000FEF774FE22462B46FEF717FF1C4A7A444C
:1046000002EBC603D3E90023FEF709FF22462B463F
:10461000FEF705FF174A7A4402EBC603D3E90023ED
:10462000FEF700FF009A002AB8BF81F00041BDE804
:10463000F88F0000000010440000F07F182D445453
:10464000FB21F93FFB21F9BF0000DC3F0000203EC9
:104650000000F33F0000F03F0000E63F0080034011
:104660000000F83F0000F0BF12030000D00200007D
:104670006E0200003602000000B5244B21F000421B
:1046800087B09A42DCBF0022134629DD204B9A42B4
:1046900008D140B94FF00100FFF7F6FCFFF7D5FC59
:1046A00007B000BD03DBFFF7CDFC07B000BD02AAD9
:1046B000FFF7BAF910F0030104BF0DF1080C9CE8F4
:1046C0000F000DD0012001290ED0022914D00DF1C8
:1046D000080C00909CE80F00FFF73EFC07B000BDFF
:1046E000FFF766FB07B000BD0DF1080C00909CE8D9
:1046F0000F00FFF731FC05E00DF1080C9CE80F00FE
:10470000FFF756FB07B081F0004100BDFB21E93FF8
:104710000000F07F00B5254B21F0004287B09A429F
:1047200003DC0022134600922BE0214B9A4208D171
:1047300040B94FF00100FFF7A7FCFFF786FC07B078
:1047400000BD03DBFFF77EFC07B000BD02AAFFF748
:104750006BF910F003014FF001000DD0012914D0C6
:1047600002291AD00DF1080C9CE80F00FFF720FB7E
:1047700007B081F0004100BD0DF1080C00909CE8ED
:104780000F00FFF7E9FB07B000BD0DF1080C9CE836
:104790000F00FFF70DFB07B000BD0DF1080C0090F6
:1047A0009CE80F00FFF7D8FBE2E70000FB21E93FA0
:1047B0000000F07F2DE9F04106460F46FFF79EF816
:1047C000041E0D4618BF0120284320F00040C0F110
:1047D0007F6000F1E040C00F0ED0301C18BF0120F8
:1047E000384320F00040C0F17F6000F1E040C00F8E
:1047F00004BF0120FFF748FC20462946BDE8F081B0
:10480000555555555555C53F7D6FEB0312D6D4BF51
:104810005544880E55C1C93F3B8F68B52882A4BF57
:1048200088B20175E0EF493F09F7FD0DE13D023F18
:104830004B2D8A1C273A03C0C88A599CE52A0040A0
:1048400059018D1B6C06E6BF82922EB1C5B8B33FED
:104850004FBB610567ACDD3F182D4454FB21E93F98
:104860009BF681D20B73EF3F182D4454FB21F93F87
:10487000E2652F227F2B7A3C075C143326A6813C0D
:10488000BDCBF07A8807703C075C143326A6913CB8
:10489000C4EB98999999C9BF711623FEC671BCBF24
:1048A0006D9A74AFF2B0B3BF9AFDDE522DDEADBF8C
:1048B0002F6C6A2C44B4A2BF0D5555555555D53FA4
:1048C000FF8300922449C23F6E204CC5CD45B73FBF
:1048D000513DD0A0660DB13FEB0D76244B7BA93F37
:1048E00011DA22E33AAD903F4C5555555555A53F49
:1048F0007751C1166CC156BF9015CB19A001FA3E75
:10490000AD529C804F7E92BEC4B1B4BD9EEE213E9E
:10491000D43888BEE9FAA8BD00004054FB21F93F15
:104920003163621A61B4D03D0000601A61B4D03DB9
:104930007370032E8A19A33B0000002E8A19A33B33
:10494000C14920259A837B39000000000000000047
:104950006E83F9A22915444ED15727FCC0DD34F5EA
:10496000999562DB4190433CAB6351FE61C5BBDE70
:104970003A6E24B7E0D24D42EA2E49061C92D10984
:104980001CEB1DFE3EA729B1F53582E88444BB2E01
:1049900026709CE9417E5FB439D69139F43953834E
:1049A0008B5F849C3B28F9BDFF97F81F0F9805DEAD
:1049B0008B112FEF1F6D0A5ACF7E366DB709CB27AB
:1049C000663F464F2DEA5F9EC7BA27757BF1E5EB40
:1049D000F739073DEA92528AB15FFB6B085D8D1F84
:1049E000A6F810111111813FD561C119A0012ABF8C
:1049F0007DFEB157E31DC73EEB9C2B8AE6E55ABE10
:104A00007CD5CF5A3AD9E53D284A0008000000205D
:104A10002001000068400008484B000820010020E9
:104A2000C80400007840000800A24A04000000000A
:104A3000000000000102030406070809000000004E
:104A400000000000000000008200000018000000CC
:104A50005000000000808642008095422DB2DD3F6C
:104A60000000B442580700003A0700003A0700006F
:104A7000A4060000D6060000D606000000000000D4
:104A8000008086C200000000CF778142008006428D
:104A900000000000CF7781C20080064200000000C5
:104AA0000000000000000000000000000000000006
:104AB00000000000000000000000000000000000F6
:104AC00000000000A69B443C000000000000000025
:104AD000A69B443C00000000000000000000000015
:104AE00000000000000000000000000000C0EA44D8
:104AF0000020004500000000000000000000000051
:104B000000000000000000000000000000000000A5
:104B10000000000000000000000000000000000095
:104B20000000000000000000000000000000000085
:104B30000000000001020304010203040607080943
:084B4000020406080000000059
:0400000508000131BD
:00000001FF
